{
  "transactions": [
    {
      "hash": "0x9ad84cd0c993aa0f8c612b1010da339f35477d54540d1d7aad7587a15b1f8aa6",
      "transactionType": "CALL",
      "contractName": null,
      "contractAddress": "0xfcae6603cdd2d3c962966b00eda7a3dcb74310a4",
      "function": "mintNft(string)",
      "arguments": [
        "ipfs://bafybeig37ioir76s7mg5oobetncojcm3c3hxasyd4rvid4jqhy4gkaheg4/?filename=0-PUG.json"
      ],
      "transaction": {
        "from": "0x9a030daeee14fb94fda2f5e02de587606f49f789",
        "to": "0xfcae6603cdd2d3c962966b00eda7a3dcb74310a4",
        "gas": "0x40fd9",
        "value": "0x0",
        "input": "0xda86f4a900000000000000000000000000000000000000000000000000000000000000200000000000000000000000000000000000000000000000000000000000000057697066733a2f2f62616679626569673337696f6972373673376d67356f6f6265746e636f6a636d3363336878617379643472766964346a71687934676b61686567342f3f66696c656e616d653d302d5055472e6a736f6e000000000000000000",
        "nonce": "0x7",
        "chainId": "0xaa36a7"
      },
      "additionalContracts": [],
      "isFixedGasLimit": false
    }
  ],
  "receipts": [
    {
      "status": "0x1",
      "cumulativeGasUsed": "0x7704e8",
      "logs": [
        {
          "address": "0xfcae6603cdd2d3c962966b00eda7a3dcb74310a4",
          "topics": [
            "0xddf252ad1be2c89b69c2b068fc378daa952ba7f163c4a11628f55a4df523b3ef",
            "0x0000000000000000000000000000000000000000000000000000000000000000",
            "0x0000000000000000000000009a030daeee14fb94fda2f5e02de587606f49f789",
            "0x0000000000000000000000000000000000000000000000000000000000000000"
          ],
          "data": "0x",
          "blockHash": "0x37c84455a9dd09e8643f8575fedbac9cac4f32504fd5b170aa22d54ae3271256",
          "blockNumber": "0x724d7f",
          "transactionHash": "0x9ad84cd0c993aa0f8c612b1010da339f35477d54540d1d7aad7587a15b1f8aa6",
          "transactionIndex": "0x3e",
          "logIndex": "0x65",
          "removed": false
        }
      ],
      "logsBloom": "0x00000000000000000000000000000000000000000000000000000000010000000000000000000000000000100000000000000000000000000000000000000000000000000000000000008008000000000000000000000000000000000000000000000000020000000000000000000800000000000000000000000010000000000000000000000000000000000000000000000000000000000000000000000000000000000000000000000000000000010000000000000000000000000000000000000002000000000000000000000000000000000000000000000000000020000000000000004000000000000000000000001000000000000000000000000000",
      "type": "0x2",
      "transactionHash": "0x9ad84cd0c993aa0f8c612b1010da339f35477d54540d1d7aad7587a15b1f8aa6",
      "transactionIndex": "0x3e",
      "blockHash": "0x37c84455a9dd09e8643f8575fedbac9cac4f32504fd5b170aa22d54ae3271256",
      "blockNumber": "0x724d7f",
      "gasUsed": "0x2c702",
      "effectiveGasPrice": "0x4feaec75a",
      "from": "0x9a030daeee14fb94fda2f5e02de587606f49f789",
      "to": "0xfcae6603cdd2d3c962966b00eda7a3dcb74310a4",
      "contractAddress": null
    }
  ],
  "libraries": [],
  "pending": [],
  "returns": {},
  "timestamp": 1736872875,
  "chain": 11155111,
  "commit": "4e3ebd3"
}